:0300000002031ADE
:0C031A00787FE4F6D8FD75816F02036166
:10060F00BFAACABCBDD3CAD5D0C5CFA20D0A0D0A89
:10061F000D0A005265636976653A20000D0A0000E5
:02062F000000C9
:0D06E200007F047E817D77DDFEDEFCDFFA07
:0106EF0022E8
:10048900E4F52178227C00FD7BFF7A06792EFE7F38
:10049900031200F612064A1204E27BFF7A06790F6C
:1004A9001204247BFF7A0679221204247B007A0045
:1004B90079221205DEEF60F4E4F52174222521F892
:1004C900E6FF1206F00521E521C3940340ED7BFF09
:0904D9007A06792B12042480D369
:0E06D30005323443101001052D344310100180
:1006A000AD071FED600B0000007E341EEE60F18090
:0106B000FA4F
:0106B1002226
:10063100E4FEEF339283EF25E0FFD286A287E43315
:080641004207C2860EBE08EA62
:01064900228E
:0C06FE00C282120631E4FF120631D282E3
:01070A0022CC
:1006B200C282120631AC07AF05120631D282AF04F4
:0106C2002215
:0605AD008B298A2A892B2C
:1005B300C282120631AD07E4FCECC3952C5017E45C
:1005C300FF120631AB29AA2AA92B8C82758300EF6F
:0A05D3001201740C80E3D282AF0520
:0105DD0022FB
:06057B008B268A27892867
:10058100C282120631AD07E4FCECC395295018ABC9
:10059100260528E528AA277002052714F912011C4F
:0B05A100FF1206310C80E2D282AF0591
:0105AC00222C
:1006C300C2857D0F7F201206B2D2857F820206A0EB
:0605DE008B258A26892707
:1005E400E4FB1206C37F071206FE8F20300612C2F8
:1005F40085AB25AA26A927752C037F611205AD7B3F
:0A06040001AD207F271206B2AF03FC
:01060E0022C9
:060530008B1C8A1D891ED0
:10053600E4F51FC285FB7A0079327529057F2A12F8
:10054600057BAB1CAA1DA91E7529037FA012057B7E
:100556007D0E7F201206B2D2857F0A1206A07DFF8D
:100566007F271206B27F071206FE8F20200503752D
:040576001F01AF1F93
:01057A00225E
:1004E2007F641206A0C285D282C2867B007A00791E
:1004F200327529057F3012057B7B007A00792D75D4
:1005020029057F2A12057B7D017F211206B27F22F7
:100512001206B21D7F251206B27D037F311206B28A
:0E0522007D077F261206B27D0E7F200206B2F4
:10068D00B4AEBFDAB3F5CABCBBAFCDEAB1CF210A68
:03069D00000A0050
:10064A00438920759850758DFD758BFDC2ABD28E8E
:09065A007BFF7A06798D0204246D
:03002300020721B0
:05072100C2ACD2AC32B5
:0E06F000C2ACC2998F993099FDC299D2AC224A
:0A0717007F0D1206F07F0A0206F0C3
:060424008B258A268927C2
:10042A00120678EF24FF786DF6EE34FF18F6E478BA
:10043A006EF608F6786EE6FC08E6FDC3786D961847
:10044A00E66480F8EC648098501BAB25AA26A9279D
:10045A008D828C83120135FF1206F0786F06E6183A
:10046A0070D20680CFAB25AA26A9278D828C83124B
:0E047A000135FEB40A03020717AF061206F0A2
:010488002251
:100663007B007A0079581202647B007A0079581271
:0506730004240207173A
:100003008F418E408D3F8C3E120424AF41AE40ADF4
:0F0013003FAC3E1206637BFF7A06799E020424FF
:0E0264008F3A8E398D388C378B3B8A3C893D22
:10027200E47856F608F618F6AF3AAE39AD38AC3730
:10028200EC4D4E4F6033E47B0AFAF9F81201D2EBDF
:100292002430FF7856E62442F8A607785606AF3A8D
:1002A200AE39AD38AC37E47B0AFAF9F81201D28FD5
:1002B2003A8E398D388C3780BF7856E608F6E418C6
:1002C200F67857E6FF18E6FEC39F5023EEFDC3EF14
:1002D2009DFF74412FF8E6FFAB3BAA3CA93D78563F
:1002E200E6F582758300EF12017478560680D278A3
:1002F20056E67012AB3BAA3CA93DE606F582758331
:10030200007430120174AB3BAA3CA93D7856E6F565
:0803120082758300E40201740E
:0403A600AD07AC06ED
:1003AA00EC54F0C4540FFFC3940AEF40052437FEFF
:1003BA0080032430FEEE120162EC540FFFC3940A4C
:1003CA00EF40052437FE80032430FE900001EE1230
:1003DA000174ED54F0FFE4C4F854F0C8EFC4540FAC
:1003EA0048FFC3940AEF40052437FE80032430FEF9
:1003FA00900002EE120174ED540FFFC3940AEF400D
:10040A00052437FF80032430FF900003EF120174A4
:09041A00900004E41201747F005B
:0104230022B6
:0C070B007B007A0079081203A602042487
:10032600020489E493A3F8E493A34003F68001F260
:1003360008DFF48029E493A3F85407240CC8C333D8
:10034600C4540F4420C8834004F456800146F6DFA7
:10035600E4800B01020408102040809006D3E47E5E
:10036600019360BCA3FF543F30E509541FFEE4939C
:10037600A360010ECF54C025E060A840B8E493A363
:10038600FAE493A3F8E493A3C8C582C8CAC583CA8E
:10039600F0A3C8C582C8CAC583CADFE9DEE780BE46
:0106E1000018
:10002600E709F608DFFA8046E709F208DFFA803EBC
:1000360088828C83E709F0A3DFFA8032E309F608A9
:10004600DFFA8078E309F208DFFA807088828C8311
:10005600E309F0A3DFFA806489828A83E0A3F608C5
:10006600DFFA805889828A83E0A3F208DFFA804C9F
:1000760080D280FA80C680D4806980F28033801076
:1000860080A680EA809A80A880DA80E280CA8033DF
:1000960089828A83ECFAE493A3C8C582C8CCC58357
:1000A600CCF0A3C8C582C8CCC583CCDFE9DEE78027
:1000B6000D89828A83E493A3F608DFF9ECFAA9F0A6
:1000C600EDFB2289828A83ECFAE0A3C8C582C8CCFC
:1000D600C583CCF0A3C8C582C8CCC583CCDFEADE15
:1000E600E880DB89828A83E493A3F208DFF980CC77
:1000F60088F0EF60010E4E60C388F0ED2402B40470
:100106000050B9F582EB2402B4040050AF23234516
:06011600822390007673C5
:10011C00BB010689828A83E0225002E722BBFE02E1
:09012C00E32289828A83E4932214
:10013500BB010CE58229F582E5833AF583E022507F
:1001450006E92582F8E622BBFE06E92582F8E222C9
:0D015500E58229F582E5833AF583E49322E3
:10016200BB010689828A83F0225002F722BBFE017C
:02017200F32276
:10017400F8BB010DE58229F582E5833AF583E8F0C1
:10018400225006E92582C8F622BBFE05E92582C86D
:02019400F22255
:1001960075F008758200EF2FFFEE33FECD33CDCC20
:1001A60033CCC58233C5829BED9AEC99E5829840A3
:1001B6000CF582EE9BFEED9AFDEC99FC0FD5F0D680
:1001C600E4CEFBE4CDFAE4CCF9A88222B800C1B9AA
:1001D6000059BA002DEC8BF084CFCECDFCE5F0CBE8
:1001E600F97818EF2FFFEE33FEED33FDEC33FCEB21
:1001F60033FB10D703994004EB99FB0FD8E5E4F9DC
:10020600FA227818EF2FFFEE33FEED33FDEC33FCC8
:10021600C933C910D7059BE99A4007EC9BFCE99ABC
:10022600F90FD8E0E4C9FAE4CCFB2275F010EF2F01
:10023600FFEE33FEED33FDCC33CCC833C810D70701
:100246009BEC9AE899400AED9BFDEC9AFCE899F83C
:0E0256000FD5F0DAE4CDFBE4CCFAE4C8F922CF
:10067800E4FFFE12011C600C0FEF70010E09E97017
:05068800F20A80EF22E0
:00000001FF
