:03000000020327D1
:0C032700787FE4F6D8FD75815202036E69
:10053000B4AEBFDAB3F5CABCBBAFCDEAB1CF210AC6
:03054000000A00AE
:030565000128006A
:1004E900438920759850758DFD758BFDC2ABD28EF1
:0D04F900D2AFD2AC7BFF7A0579300204311E
:030023000204963E
:10049600C0E0C0D0859928E528B4320AD2A3D2900C
:1004A600D292D294D296E528B4310AC2A3C290C29F
:0F04B60092C294C296C298752700D0D0D0E0327F
:0C054300C2AC8F993099FDC299D2AC2255
:0A055B007F0D1205437F0A020543DD
:060431008B1C8A1D891ED0
:1004370012051BEF24FF783EF6EE34FF18F6E4783A
:100447003FF608F6783FE6FC08E6FDC3783E9618C7
:10045700E66480F8EC648098501BAB1CAA1DA91EAB
:100467008D828C83120026FF120543784006E6181A
:1004770070D20680CFAB1CAA1DA91E8D828C831259
:0E0487000026FEB40A0302055BAF0612054311
:010495002244
:100506007B007A0079291202997B007A00792912F8
:05051600043102055B49
:100003008F268E258D248C23120431AF26AE25AD89
:0F00130024AC231205067BFF7A057941020431E4
:0E0299008F1F8E1E8D1D8C1C8B208A218922AA
:1002A700E47851F608F618F6AF1FAE1EAD1DAC1C6C
:1002B700EC4D4E4F6033E47B0AFAF9F8120112EB6A
:1002C7002430FF7851E6243DF8A607785106AF1F82
:1002D700AE1EAD1DAC1CE47B0AFAF9F81201128FB1
:1002E7001F8E1E8D1D8C1C80BF7851E608F6E41802
:1002F700F67852E6FF18E6FEC39F5023EEFDC3EFE4
:100307009DFF743C2FF8E6FFAB20AA21A922785164
:0F031700E6F582758300EF12006578510680D2FB
:0103260022B4
:0601FB008B1C8A1D891E09
:1002010078291201C900000000782D1201C90000EF
:10021100000112051B7831EFF608F67832E6D39427
:1002210000406F78291201B0C000C001C002C003B4
:100231007832E67E0024FFF582EE34FFF583AB1CB5
:10024100AA1DA91E120026FF3395E0FEEF24D0FF60
:10025100EE34FFFE3395E0FDFC782D1201B0120063
:1002610087D003D002D001D000EB2FFFEA3EFEE998
:100271003DFDE83CFC78291201BD782D1201A4E472
:100281007B0AFAF9F8120087782D1201BD7832162F
:07029100808978291201A405
:010298002243
:0403B300AD07AC06E0
:1003B700EC54F0C4540FFFC3940AEF40052437FEF2
:1003C70080032430FEEE120053EC540FFFC3940A4F
:1003D700EF40052437FE80032430FE900001EE1223
:1003E7000065ED54F0FFE4C4F854F0C8EFC4540FAF
:1003F70048FFC3940AEF40052437FE80032430FEEC
:10040700900002EE120065ED540FFFC3940AEF400F
:10041700052437FF80032430FF900003EF120065A7
:09042700900004E41200657F005E
:0104300022A9
:0C054F007B007A0079081203B30204312B
:1004C5001204E97FC87E017D007C001205067FC805
:1004D5007E017D007C001205067B007AE2794012E0
:0404E50001FB80DFB8
:100333000204C5E493A3F8E493A34003F68001F217
:1003430008DFF48029E493A3F85407240CC8C333CB
:10035300C4540F4420C8834004F456800146F6DF9A
:10036300E4800B0102040810204080900565E47EC0
:10037300019360BCA3FF543F30E509541FFEE4938F
:10038300A360010ECF54C025E060A840B8E493A356
:10039300FAE493A3F8E493A3C8C582C8CAC583CA81
:1003A300F0A3C8C582C8CAC583CADFE9DEE780BE39
:010568000092
:10002600BB010CE58229F582E5833AF583E022508F
:1000360006E92582F8E622BBFE06E92582F8E222D9
:0D004600E58229F582E5833AF583E49322F3
:10005300BB010689828A83F0225002F722BBFE018C
:02006300F32286
:10006500F8BB010DE58229F582E5833AF583E8F0D1
:10007500225006E92582C8F622BBFE05E92582C87D
:02008500F22265
:10008700E88FF0A4CC8BF0A42CFCE98EF0A42CFC18
:100097008AF0EDA42CFCEA8EF0A4CDA8F08BF0A496
:1000A7002DCC3825F0FDE98FF0A42CCD35F0FCEBF5
:1000B7008EF0A4FEA9F0EB8FF0A4CFC5F02ECD39BA
:0F00C700FEE43CFCEAA42DCE35F0FDE43CFC2227
:1000D60075F008758200EF2FFFEE33FECD33CDCCE1
:1000E60033CCC58233C5829BED9AEC99E582984064
:1000F6000CF582EE9BFEED9AFDEC99FC0FD5F0D641
:10010600E4CEFBE4CDFAE4CCF9A88222B800C1B96A
:100116000059BA002DEC8BF084CFCECDFCE5F0CBA8
:10012600F97818EF2FFFEE33FEED33FDEC33FCEBE1
:1001360033FB10D703994004EB99FB0FD8E5E4F99C
:10014600FA227818EF2FFFEE33FEED33FDEC33FC89
:10015600C933C910D7059BE99A4007EC9BFCE99A7D
:10016600F90FD8E0E4C9FAE4CCFB2275F010EF2FC2
:10017600FFEE33FEED33FDCC33CCC833C810D707C2
:100186009BEC9AE899400AED9BFDEC9AFCE899F8FD
:0E0196000FD5F0DAE4CDFBE4CCFAE4C8F92290
:0C01A400E6FC08E6FD08E6FE08E6FF2287
:0D01B000E6FB08E6F908E6FA08E6CBF822BF
:0C01BD00ECF608EDF608EEF608EFF6226E
:1001C900D083D082E493F608740193F608740293FD
:0901D900F608740393F674047334
:10051B00E4FFFE1201E2600C0FEF70010E09E970AF
:05052B00F20A80EF223E
:1001E200BB010689828A83E0225002E722BBFE021B
:0901F200E32289828A83E493224E
:00000001FF
