:030000000207757F
:0C077500787FE4F6D8FD7581B30207BC64
:040EC10025640A009A
:040DE500020E0000FA
:0F0E8300120006120DC8120E63120C14020E7329
:100AEA00120E831209DD781AA60608A60718E678F8
:100AFA001CF618E6FF781DF6750E00F50F7BFF7AD7
:100B0A000E79C1850E60F5611200C8781CE62402D0
:100B1A00600C147012781DE6FF120D4D80C5781D09
:100B2A00E6FF120E4180BC781AE6FE08E6AA06F92C
:050B3A001205E380AE8E
:1003C200B5B1C7B0B9A4D7F7BDE7C3E63A206B65AC
:1003D20079203D2025630A0020202020C7D0BBBB06
:1003E200CEAAC9E8D6C3BDE7C3E60A00B5B1C7B015
:1003F200C9E8D6C3BDE7C3E63A206B6579203D2044
:1004020025630A0020202020C7D0BBBBCEAACEACD9
:10041200BBA4BDE7C3E60A00B5B1C7B0CEACBBA46E
:10042200BDE7C3E63A206B6579203D2025630A00CB
:1004320020202020C7D0BBBBCEAAB9A4D7F7BDE7E6
:10044200C3E60A000A6D734F532D6D637535312D66
:1004520076302E31284D53332E3329205374617256
:10046200740A000A646174653A323031332E382ED0
:1004720031370A000A486172647761726520506CF4
:1004820061743A4D435535315365726965730A009B
:10049200417574686F723A2077616E6773770A00EC
:1004A2000A0A00313AB9A4D7F7BDE7C3E60A003217
:1004B2003AC9E8D6C3BDE7C3E60A00333ACEACBBBD
:1004C200A4BDE7C3E60A004D656E75203D20696450
:1004D2006C650A00506C6561736520707265737398
:1004E2002031202C2032206F7220332020746F2084
:1004F20073656C656374206D656E750A00C8EDBC2A
:10050200FEB6A8CAB1C6F7D1D3CAB1D6B4D0D00A02
:100512000055736172742052656365697665203D8A
:040522002025780018
:030DE900011E01E7
:100CEA008F257BFF7A0379C28525601200C8E52526
:100CFA00B4320D7BFF7A0379DA1200C8781E7602C5
:010D0A0022C6
:100D0B008F257BFF7A0379EE8525601200C8E525D8
:100D1B00B4330D7BFF7A0479061200C8781E760374
:010D2B0022A5
:100D2C008F257BFF7A04791A8525601200C8E5258A
:100D3C00B4310D7BFF7A0479321200C8781E76012B
:010D4C002284
:100D4D008F24781EE624FE600C14600E2402700FB2
:100D5D00AF24020CEAAF24020D0BAF24120D2C228E
:100A3A007BFF7A0479461200C87BFF7A0479651233
:100A4A0000C87BFF7A0479761200C87BFF7A0479A2
:100A5A00921200C87BFF7A0479A21200C87BFF7A3F
:100A6A000479A51200C87BFF7A0479B11200C87B09
:100A7A00FF7A0479BD1200C87BFF7A0479C9120093
:0A0A8A00C87BFF7A0479D60200C889
:100C56008F247BFF7A0379C28524601200C8E524BD
:100C6600B432127BFF7A0379DA1200C87508FF7571
:060C7600090C750A7C2246
:100C7C008F257BFF7A0379EE8525601200C8E52568
:100C8C00B433127BFF7A0479061200C87508FF751D
:060C9C00090C750AA222FA
:100CA2008F267BFF7A04791A8526601200C8E52612
:100CB200B431127BFF7A0479321200C87508FF75CD
:060CC200090C750A562220
:100E6300120A3AE4F5907508FF75090C750A5622C3
:100DFF007BFF7A0479FF1200C87BFF7A0D79FF7DA4
:080E0F00E87C037F01020626C6
:100E41007BFF7A0579137560008F611200C8020D6E
:010E5100FFA1
:100A94000A4153534552543A20686578203C20312A
:100AA400360A000A4153534552543A204D65737334
:100AB40061676551756575652E456E7472696573F8
:100AC400203C204D65737361676551756575652EAE
:100AD40053697A650A003031323334353637383960
:060AE40041424344454677
:030DEC00011000F3
:0B0EA000EF1FAC0670011E4C70F62224
:0B0EAB00EF1FAC0670011E4C70F62219
:100E1700AB07AA06EB1BAE0270011A4E60097FE80A
:080E27007E03120EAB80ED22E8
:100D6D008F12EFC3941050028001C3400B7BFF7AAA
:100D7D000A79941200C880FEE512900ADA93FF22D8
:0E0E9200E5107007A2AF33F511C2AF051022B4
:100E5200E510D394004009D51006E51124FF92AFA6
:010E6200226D
:100C140078A3760008760008769B087600087600AC
:100C24000876A378A3860308E6FA08E6F978A9A665
:100C34000308A60208A60178A3860308E6FA08E6D4
:100C4400F978ACA60308A60208A601087604E4080D
:020C5400F62286
:1006D1008F5A8C5B8D5C79B0E7C378AF96500280FE
:1006E10001C3400B7BFF7A0A79A71200C880FE1272
:1006F1000E92E55A78A98603B4F01008E6FA08E6E6
:10070100F9E55B855CF012059E801D08E6FA08E6B6
:10071100F9E55A12053F78A9860308E6FA08E6F9D1
:10072100900001E55C12055178AB740226F618E4DD
:1007310036F678B00678A6860308E6FA08E6F9C028
:10074100038A83898208860308E6FA08E6F9D0E07D
:100751006B7008E965827003EA6583701478A3867B
:100761000308E6FA08E6F978A9A60308A60208A68E
:0407710001020E5221
:1009DD0078B0E660FB78AC86030808E6F92402F6E9
:1009ED0018E6FA3400F6120573FFAEF078B01678FB
:1009FD00A6860308E6FA08E6F9C0038A8389827899
:100A0D00AC860308E6FA08E6F9D0E06B7008E965F4
:100A1D00827003EA6583701478A3860308E6FA08EA
:0C0A2D00E6F978ACA60308A60208A601B2
:010A3900229A
:090DEF0001B1FF01B30001B200E3
:10090700EF1205BD093F7709427B09457D09487EFE
:10091700094BB7094EBB0951BD0954BE0957D70941
:100927005ADB095DDD0960DE0963E70966EB0969E2
:10093700ED096CEE0000096F7F0C227F08227F040F
:10094700227F00227F0D227F09227F05227F01223D
:100957007F0E227F0A227F06227F02227F0F227FBD
:0B0967000B227F07227F03227FFF226C
:10097200EF1205BD09AA7709AD7B09B07D09B37EE7
:1009820009B6B709B9BB09BCBD09BFBE09C2D709BF
:10099200C5DB09C8DD09CBDE09CEE709D1EB09D4F5
:1009A200ED09D7EE000009DA7F30227F31227F3253
:1009B200227F33227F34227F35227F36227F3722E5
:1009C2007F38227F39227F3A227F3B227F3C227F5F
:0B09D2003D227F3E227F3F227FFF225C
:100D8D0075900F7F017E00120EA08590597590F021
:0D0D9D007F017E00120EA0E5904259AF5973
:010DAA002226
:10088D00120D8D8F58E558F4704678B2E660091652
:10089D00E408F678B176FF2278B1E6FFB4FF028066
:1008AD004978B3E6B42805120972800F78B3E6D300
:1008BD009403401078B1E6FF120907EFFD7C007F2D
:1008CD00FF1206D1E478B3F678B176FF08760A22E6
:1008DD0078B306E6FFB4010578B1A65822EFB4024D
:1008ED000EE55878B166601176FFE478B3F622789C
:0908FD00B3E6C3942840027628FA
:0109060022CE
:030DF800011400E3
:10002600781406E6B46404E4F608067815E6B43CEB
:1000360004E4F608067816E6B43C04E4F608067806
:0F00460017E6B4180AE4F6781906E618700106F2
:010055002288
:0D000600E47815F608F608F608F608F6226C
:0B0EB6004D6F6465203D2025640A009C
:030DFB0001710083
:10080100E4F5587871E6700302088C120E92787143
:10081100E6F559E559607130E064E55875F005A4D5
:100821002473F808E616187001161486064E704EE9
:10083100AF587872E6FEA807088002C313D8FC30CF
:10084100E018E55875F005A42475F808E6FA08E6FD
:10085100AC02FD7FF01206D18012E55875F005A4B7
:100861002475F808E6FA08E6F91205E3AF587401B1
:10087100A807088002C333D8FCF4787156F6E5590D
:0B088100C313F5590558808B120E526E
:01088C002249
:0C0626008F248C258D268B278A2889299B
:10063200120E92E4F52AAF2A7871E6FEA807088026
:1006420002C313D8FC20E075E52A75F005A42473D3
:10065200F8A62508A626AA28A929E52A75F005A440
:100662002475F8A62708A60208A601E5246012AFA1
:100672002A7401A807088002C333D8FC7872468026
:1006820011AF2A7401A807088002C333D8FCF4789A
:100692007256F6752B00F52C7BFF7A0E79B6852BF8
:1006A20060F5611200C8AF2A7401A807088002C36E
:1006B20033D8FC787146F6120E52AF2A22052AE58B
:0E06C2002AC394085003020638120E527FFF1E
:0106D0002207
:100CC8008F13E513C394085018120E92AF137401D2
:100CD800A807088002C333D8FCF4787156F6120EC0
:020CE800522296
:100DAB00BF0A0CC2AC75990D3099FDC299D2ACC279
:0D0DBB00AC8F993099FDC299D2AC7F012216
:060E2F0014F9120526FF74
:0C0E3500C2AC8F993099FDC299D2AC225A
:100BCF008B0B8A0C890DED6017AF051DEF6035ABF0
:100BDF000B050DE50DAA0C7002050C120E2F80E906
:100BEF00AB0BAA0CA90D1205266019B40A057F0DCF
:100BFF00120E35AB0B050DE50DAA0C7002050C128C
:050C0F000E2F80DC2225
:100DC800438780759850438E40538EFE53890F4356
:0D0DD8008920758BF4758DF4C2ABD28E228C
:03002300020B3F8E
:100B3F00C0E0C0F0C083C082C0D075D000C000C07C
:100B4F0001C002C003C004C005C006C007C2ACC2CA
:100B5F0098AF99EFFD7C007FFF1206D1D2ACD00782
:100B6F00D006D005D004D003D002D001D000D0D011
:090B7F00D082D083D0F0D0E03226
:0D001600C289ED24FF9288EF24FF92A822FA
:03000300020EC525
:010EC50032FA
:0D005600C28BED24FF928AEF24FF92AA22B4
:03001300020EC614
:010EC60032F9
:0F0E73007CB88CD6E4F5D7D2AF43AF04438E10D2
:010E8200224D
:03006300020B8805
:100B8800C0E0C0F0C083C082C0D075D000C000C033
:100B980001C002C003C004C005C006C007538EEFE1
:100BA80012088D120026120801438E10D007D006B5
:100BB800D005D004D003D002D001D000D0D0D0824C
:070BC800D083D0F0D0E03231
:10078100020AEAE493A3F8E493A34003F68001F29A
:1007910008DFF48029E493A3F85407240CC8C33379
:1007A100C4540F4420C8834004F456800146F6DF48
:1007B100E4800B0102040810204080900DE5E47EE6
:1007C100019360BCA3FF543F30E509541FFEE4933D
:1007D100A360010ECF54C025E060A840B8E493A304
:1007E100FAE493A3F8E493A3C8C582C8CAC583CA2F
:1007F100F0A3C8C582C8CAC583CADFE9DEE780BEE7
:010DFE0000F4
:10052600BB010689828A83E0225002E722BBFE02D3
:09053600E32289828A83E4932206
:10053F00BB010689828A83F0225002F722BBFE019B
:02054F00F32295
:10055100F8BB010DE58229F582E5833AF583E8F0E0
:10056100225006E92582C8F622BBFE05E92582C88C
:02057100F22274
:10057300BB010A89828A83E0F5F0A3E02250068753
:10058300F009E71922BBFE07E3F5F009E319228915
:0B059300828A83E493F5F07401932248
:10059E00BB010A89828A83F0E5F0A3F0225006F7A8
:0F05AE0009A7F01922BBFE06F3E5F009F31922A5
:1005BD00D083D082F8E4937012740193700DA3A3CD
:1005CD0093F8740193F5828883E4737402936860E1
:0605DD00EFA3A3A380DFE1
:0605E3008A838982E473A3
:10006600E56C2460F8E6056C22785D30190278604C
:10007600E475F0011206160205262012EB7F2ED239
:10008600128018EF540F2490D43440D4FF30160B4E
:10009600EF24BFB41A0050032461FFE56D6002151A
:1000A6006D0570E5707002056F30190D785DE475A9
:1000B600F001120616EF02053F020DAB7403D219CA
:1000C6008003E4C219F56C8B5D8A5E895FE4F56D89
:1000D600F56FF570E56D60077F201200A180F5755C
:1000E6006EFFC213C212C214C215C217C218C21AB8
:1000F60012006FFF700D3019057F001200B2AF704D
:10010600AE6F22B4255FC2D5C21612006FFF24D08F
:10011600B40A00501A75F00A786D30D50508B6FF96
:100126000106C6A426F620D5047002D21580D9246D
:10013600CFB41A00EF5004C2E5D2160202B2D213AF
:1001460080C6D21280C0D21480BCD2D580BAD21753
:1001560080B47F201200A12014077401B56D004001
:10016600F1120066FF1200A10200DAD21AD218803C
:1001760095120066FB120066FA120066F94A4B7089
:100186000679837A037BFF20142EE56D602A7E00B4
:100196008E827583001205E960060EEE656E70F0BC
:1001A600C2D5EBC0E0EAC0E0E9C0E0EE1202F9D049
:1001B600E0F9D0E0FAD0E0FB120526FF60AAEBC01A
:1001C600E0EAC0E0E9C0E01200A1D0E02401F9D0E5
:1001D600E03400FAD0E0FBE56E0460DCD56ED98031
:1001E600877BFF7A0279F5D214809C791080027998
:1001F60008C218C21A8008D2D5790A8004790AC2C0
:10020600D5E56E047002F56EE4FAFDFEFF12006697
:10021600FC7B08201313120066FD7B1030120A12B5
:100226000066FE120066FF7B20EC3382D592D55025
:1002360013C3E43012069FFFE49EFEE42013039DE1
:10024600FDE49CFCE4CBF8C213EC700CCFCECDCC15
:10025600E824F8F870F38017C3EF33FFEE33FEEDB2
:1002660033FDEC33FCEB33FB994002FB0FD8E9EB93
:10027600301305F8D0E0C448B213C0E00AEC4D4E86
:100286004F78207B0070C2EAB56E0040BCC0E01219
:1002960002FBD0F0D0E0201304C4C0E0C4B213C007
:1002A600F012008AD0F0D5F0EB0200DA1205BD019B
:1002B600775301F15801484C01444201F54F01FDC5
:0F02C6004401FD49015D4302035501E74601E78D
:1002D5004501E74703A350014C2D01502E01732B17
:1002E500015423017120038C2A010C480000016B85
:1002F5003F3F3F00790AA2D5201514301709B910E0
:10030500020404B9080104A2D520180250010420F2
:1003150014689214B56D005034C0E07F2030151973
:100325007F30A21472187217500F120352C214C2F2
:1003350018C217C21A7F30800F301703E9C0E012C8
:1003450000A1301703D0E0F9D0E0B56DCC30171718
:100355007F30B9100C1200A17F583016077F7880C6
:1003650003B908031200A13014057F2D0200A17FF7
:1003750020201AF87F2B2018F322921480CF286EA4
:10038500756C6C2900D2131200663013F8C213780D
:100395006D30D50108F602010C2D50434958120065
:1003A500662403B405004001E490039E9312009275
:0D03B500743A120092D215756D040201F128
:1005E900BB010CE58229F582E5833AF583E02250C7
:1005F90006E92582F8E622BBFE06E92582F8E22211
:0D060900E58229F582E5833AF583E493222A
:10061600FAE6FB0808E6F925F0F618E6CA3AF622E5
:00000001FF
