:0300000002031ADE
:0C031A00787FE4F6D8FD75817302036162
:0E06EF0005323443101001052D344310100164
:1006BC00AD071FED600B0000007E341EEE60F18074
:0106CC00FA33
:0106CD00220A
:10064D00E4FEEF339283EF25E0FFD286A287E433F9
:08065D004207C2860EBE08EA46
:010665002272
:0C070C00C28212064DE4FF12064DD2829C
:0107180022BE
:1006CE00C28212064DAC07AF0512064DD282AF04A0
:0106DE0022F9
:0605C1008B3F8A408941D6
:1005C700C28212064DAD07E4FCECC395425017E416
:1005D700FF12064DAB3FAA40A9418C82758300EFFD
:0A05E7001201740C80E3D282AF050C
:0105F10022E7
:06058F008B298A2A892B4A
:10059500C28212064DAD07E4FCECC3952C5018AB96
:1005A50029052BE52BAA2A7002052A14F912011C2C
:0B05B500FF12064D0C80E2D282AF0561
:0105C0002218
:1006DF00C2857D0F7F201206CED2857F820206BC97
:0605F2008B438A44894599
:1005F800E4FB1206DF7F0712070C8F20300612C2B9
:1006080085AB43AA44A9457542037F611205C17BA6
:0A06180001AD207F271206CEAF03CC
:0106220022B5
:060544008B248A258926A4
:10054A00E4F527C285FB7A007932752C057F2A12D9
:10055A00058FAB24AA25A926752C037FA012058F27
:10056A007D0E7F201206CED2857F0A1206BC7DFF41
:10057A007F271206CE7F0712070C8F2020050375EE
:04058A002701AF276F
:01058E00224A
:1004F6007F641206BCC285D282C2867B007A0079EE
:1005060032752C057F3012058F7B007A00792D75A8
:100516002C057F2A12058F7D017F211206CE7F22B0
:100526001206CE1D7F251206CE7D037F311206CE22
:0E0536007D077F261206CE7D0E7F200206CEA8
:1006A900B4AEBFDAB3F5CABCBBAFCDEAB1CF210A4C
:0306B900000A0034
:10066600438920759850758DFD758BFDC2ABD28E72
:090676007BFF7A0679A9020491C8
:0300230002072FA2
:05072F00C2ACD2AC32A7
:0E06FE00C2ACC2998F993099FDC299D2AC223C
:0A0725007F0D1206FE7F0A0206FE99
:060491008B248A25892658
:10049700120694EF24FF7871F6EE34FF18F6E4782D
:1004A70072F608F67872E6FC08E6FDC378719618CE
:1004B700E66480F8EC648098501BAB24AA25A92633
:1004C7008D828C83120135FF1206FE787306E618BB
:1004D70070D20680CFAB24AA25A9268D828C8312E1
:0E04E7000135FEB40A03020725AF061206FE19
:0104F50022E4
:10067F007B007A00795C1202647B007A00795C124D
:05068F000491020725A3
:100003008F1F8E1E8D1D8C1C120491AF1FAE1EAD53
:0F0013001DAC1C12067F7BFF7A0679BA0204919E
:0E0264008F3A8E398D388C378B3B8A3C893D22
:10027200E4785AF608F618F6AF3AAE39AD38AC372C
:10028200EC4D4E4F6033E47B0AFAF9F81201D2EBDF
:100292002430FF785AE62446F8A607785A06AF3A81
:1002A200AE39AD38AC37E47B0AFAF9F81201D28FD5
:1002B2003A8E398D388C3780BF785AE608F6E418C2
:1002C200F6785BE6FF18E6FEC39F5023EEFDC3EF10
:1002D2009DFF74452FF8E6FFAB3BAA3CA93D785A37
:1002E200E6F582758300EF120174785A0680D2789F
:1002F2005AE67012AB3BAA3CA93DE606F58275832D
:10030200007430120174AB3BAA3CA93D785AE6F561
:0803120082758300E40201740E
:0403A600AD07AC06ED
:1003AA00EC54F0C4540FFFC3940AEF40052437FEFF
:1003BA0080032430FEEE120162EC540FFFC3940A4C
:1003CA00EF40052437FE80032430FE900001EE1230
:1003DA000174ED54F0FFE4C4F854F0C8EFC4540FAC
:1003EA0048FFC3940AEF40052437FE80032430FEF9
:1003FA00900002EE120174ED540FFFC3940AEF400D
:10040A00052437FF80032430FF900003EF120174A4
:09041A00900004E41201747F005B
:0104230022B6
:0C0719007B007A0079081203A60204910C
:10062300BFAACABCB7A2CBCDD0C5CFA20D0A0D0AB3
:100633000D0A0053656E643A20A1ADA1ADA1ADA131
:0A064300AD200A0061730030303072
:1004240078217C007D007BFF7A06794A7E007F0379
:100434001200F61206661204F6D2B7D2B6D2B5D2BC
:10044400B47BFF7A0679231204917B007A00792128
:10045400120544EF60097BFF7A0679361204912075
:10046400B405752131801B20B60575213280132017
:10047400B705752133800B20B505752134800375CC
:0D04840021617BFF7A06794712054480BD97
:10032600020424E493A3F8E493A34003F68001F2C5
:1003360008DFF48029E493A3F85407240CC8C333D8
:10034600C4540F4420C8834004F456800146F6DFA7
:10035600E4800B01020408102040809006EFE47E42
:10036600019360BCA3FF543F30E509541FFEE4939C
:10037600A360010ECF54C025E060A840B8E493A363
:10038600FAE493A3F8E493A3C8C582C8CAC583CA8E
:10039600F0A3C8C582C8CAC583CADFE9DEE780BE46
:0106FD0000FC
:10002600E709F608DFFA8046E709F208DFFA803EBC
:1000360088828C83E709F0A3DFFA8032E309F608A9
:10004600DFFA8078E309F208DFFA807088828C8311
:10005600E309F0A3DFFA806489828A83E0A3F608C5
:10006600DFFA805889828A83E0A3F208DFFA804C9F
:1000760080D280FA80C680D4806980F28033801076
:1000860080A680EA809A80A880DA80E280CA8033DF
:1000960089828A83ECFAE493A3C8C582C8CCC58357
:1000A600CCF0A3C8C582C8CCC583CCDFE9DEE78027
:1000B6000D89828A83E493A3F608DFF9ECFAA9F0A6
:1000C600EDFB2289828A83ECFAE0A3C8C582C8CCFC
:1000D600C583CCF0A3C8C582C8CCC583CCDFEADE15
:1000E600E880DB89828A83E493A3F208DFF980CC77
:1000F60088F0EF60010E4E60C388F0ED2402B40470
:100106000050B9F582EB2402B4040050AF23234516
:06011600822390007673C5
:10011C00BB010689828A83E0225002E722BBFE02E1
:09012C00E32289828A83E4932214
:10013500BB010CE58229F582E5833AF583E022507F
:1001450006E92582F8E622BBFE06E92582F8E222C9
:0D015500E58229F582E5833AF583E49322E3
:10016200BB010689828A83F0225002F722BBFE017C
:02017200F32276
:10017400F8BB010DE58229F582E5833AF583E8F0C1
:10018400225006E92582C8F622BBFE05E92582C86D
:02019400F22255
:1001960075F008758200EF2FFFEE33FECD33CDCC20
:1001A60033CCC58233C5829BED9AEC99E5829840A3
:1001B6000CF582EE9BFEED9AFDEC99FC0FD5F0D680
:1001C600E4CEFBE4CDFAE4CCF9A88222B800C1B9AA
:1001D6000059BA002DEC8BF084CFCECDFCE5F0CBE8
:1001E600F97818EF2FFFEE33FEED33FDEC33FCEB21
:1001F60033FB10D703994004EB99FB0FD8E5E4F9DC
:10020600FA227818EF2FFFEE33FEED33FDEC33FCC8
:10021600C933C910D7059BE99A4007EC9BFCE99ABC
:10022600F90FD8E0E4C9FAE4CCFB2275F010EF2F01
:10023600FFEE33FEED33FDCC33CCC833C810D70701
:100246009BEC9AE899400AED9BFDEC9AFCE899F83C
:0E0256000FD5F0DAE4CDFBE4CCFAE4C8F922CF
:10069400E4FFFE12011C600C0FEF70010E09E970FB
:0506A400F20A80EF22C4
:00000001FF
