:1005B600312020B4AEBFDAB3F5CABCBBAFCDEAB1C9
:1005C600CF210A00322020D2D1C6F4D3C3C8C8C670
:1005D600F4B6AFA3A8D7D4B6AFCFC2D4D8A3A9A335
:1005E600ACC7EBD7A2D2E2B3CCD0F2CAC7B7F1D22E
:1005F600ECB3A30A00202020CFC2C3E6BDABB2E213
:10060600CAD45072696E7466282029BAAFCA2CC73C
:10061600EBD7A2D2E2CCE1CABEA3A1A3A1A3A10AB1
:10062600002020207072696E746628202920697364
:09063600206F6B210A0A000A0082
:1006A400759850438E40538EFE53890F758BD075C9
:1006B4008DFFC2ABD28ED2AFD2AC7BFF7A0579B6B6
:1006C40012063F7BFF7A0579CA7F037E007D007C9A
:1006D400001200037BFF7A0579FB12063F7BFF7A49
:0606E400067927020088E0
:030023000207A130
:0D07A100C2AC309805C29875C760D2AC326A
:0E079300C2ACC2998F993099FDC299D2AC22A6
:0A07BA007F0D1207937F0A020793D8
:06063F008B0E8A0F8910EA
:1006450012075AEF24FF7837F6EE34FF18F6E478F0
:1006550038F608F67838E6FC08E6FDC378379618CC
:10066500E66480F8EC648098501BAB0EAA0FA910C5
:100675008D828C83120382FF120793783906E61860
:1006850070D20680CFAB0EAA0FA9108D828C831273
:0E0695000382FEB40A030207BAAF06120793EF
:0106A3002234
:10076F007B007A0079221205007B007A0079220241
:02077F00063F33
:100003008F0D8E0C8D0B8C0A12063FAF0DAE0CAD0F
:0F0013000BAC0A12076F7BFF7A06793D02063F9E
:0E0500008F118E108D0F8C0E8B128A138914A2
:10050E00E4784AF608F618F6AF11AE10AD0FAC0E41
:10051E00EC4D4E4F6033E47B0AFAF9F812040DEB02
:10052E002430FF784AE62436F8A607784A06AF113B
:10053E00AE10AD0FAC0EE47B0AFAF9F812040D8F73
:10054E00118E108D0F8C0E80BF784AE608F6E418D7
:10055E00F6784BE6FF18E6FEC39F5023EEFDC3EF81
:10056E009DFF74352FF8E6FFAB12AA13A914784A33
:10057E00E6F582758300EF1203AF784A0680D278D3
:10058E004AE67012AB12AA13A914E606F582758319
:10059E000074301203AFAB12AA13A914784AE6F511
:0805AE0082758300E40203AF33
:10072500BF0A0CC2AC75990D3099FDC299D2ACC205
:0D073500AC8F993099FDC299D2AC7F0122A2
:100781000A00D7D6B7FBB4AEB7A2CBCDB3C9B9A6D1
:020791000A005C
:10074200EFD39400401100007E057D347CC3DCFEB3
:07075200DDFCDEFA1F80E967
:01075900227D
:1006EA00E4F508F5091206A47F0A1207420509E58E
:1006FA0009700205082430FF1207937BFF7A0779F5
:10070A008112063F7BFF7A07798312063FE5096467
:0B071A0009450870D3F508F50980CDF3
:030000000207AE46
:0C07AE00787FE4F6D8FD75814B0206EA66
:10038200BB010CE58229F582E5833AF583E0225030
:1003920006E92582F8E622BBFE06E92582F8E2227A
:0D03A200E58229F582E5833AF583E4932294
:1003AF00F8BB010DE58229F582E5833AF583E8F084
:1003BF00225006E92582C8F622BBFE05E92582C830
:0203CF00F22218
:1003D10075F008758200EF2FFFEE33FECD33CDCCE3
:1003E10033CCC58233C5829BED9AEC99E582984066
:1003F1000CF582EE9BFEED9AFDEC99FC0FD5F0D643
:10040100E4CEFBE4CDFAE4CCF9A88222B800C1B96C
:100411000059BA002DEC8BF084CFCECDFCE5F0CBAA
:10042100F97818EF2FFFEE33FEED33FDEC33FCEBE3
:1004310033FB10D703994004EB99FB0FD8E5E4F99E
:10044100FA227818EF2FFFEE33FEED33FDEC33FC8B
:10045100C933C910D7059BE99A4007EC9BFCE99A7F
:10046100F90FD8E0E4C9FAE4CCFB2275F010EF2FC4
:10047100FFEE33FEED33FDCC33CCC833C810D707C4
:100481009BEC9AE899400AED9BFDEC9AFCE899F8FF
:0E0491000FD5F0DAE4CDFBE4CCFAE4C8F92292
:10002600E519240DF8E6051922780A300702780D3D
:10003600E475F0011204CA02049F2000EB7F2ED261
:10004600008018EF540F2490D43440D4FF30040BB2
:10005600EF24BFB41A0050032461FFE51A600215AD
:100066001A051DE51D7002051C30070D780AE4759A
:10007600F0011204CAEF0204B80207257403D2077E
:100086008003E4C207F5198B0A8A0B890CE4F51A7A
:10009600F51CF51DE51A60077F2012006180F575D5
:1000A6001BFFC201C200C202C203C205C206C208C9
:1000B60012002FFF700D3007057F00120072AF1D72
:1000C600AE1C22B4255FC2D5C20412002FFF24D075
:1000D600B40A00501A75F00A781A30D50508B6FF2A
:1000E6000106C6A426F620D5047002D20380D924C0
:1000F600CFB41A00EF5004C2E5D204020272D20154
:1001060080C6D20080C0D20280BCD2D580BAD205C9
:1001160080B47F201200612002077401B51A0040E6
:10012600F1120026FF12006102009AD208D2068060
:1001360095120026FB120026FA120026F94A4B7089
:100146000679437A037BFF20022EE51A602A7E0099
:100156008E8275830012038260060EEE651B70F0B8
:10016600C2D5EBC0E0EAC0E0E9C0E0EE1202B9D0C9
:10017600E0F9D0E0FAD0E0FB12049FFF60AAEBC0E2
:10018600E0EAC0E0E9C0E0120061D0E02401F9D065
:10019600E03400FAD0E0FBE51B0460DCD51BD98017
:1001A600877BFF7A0279B5D202809C79108002792A
:1001B60008C206C2088008D2D5790A8004790AC224
:1001C600D5E51B047002F51BE4FAFDFEFF120026BE
:1001D600FC7B08200113120026FD7B1030000A125A
:1001E6000026FE120026FF7B20EC3382D592D550E6
:1001F60013C3E43000069FFFE49EFEE42001039D46
:10020600FDE49CFCE4CBF8C201EC700CCFCECDCC67
:10021600E824F8F870F38017C3EF33FFEE33FEEDF2
:1002260033FDEC33FCEB33FB994002FB0FD8E9EBD3
:10023600300105F8D0E0C448B201C0E00AEC4D4EEA
:100246004F78207B0070C2EAB51B0040BCC0E012AC
:1002560002BBD0F0D0E0200104C4C0E0C4B201C0AB
:10026600F012004AD0F0D5F0EB02009A1204DA013F
:10027600375301B15801084C01044201B54F01BD85
:0F0286004401BD49011D4301C35501A74601A70E
:100295004501A747036350010C2D01102E01332B97
:1002A500011423013120034C2A00CC480000012B06
:1002B5003F3F3F00790AA2D5200314300509B91044
:1002C500020404B9080104A2D52006025001042045
:1002D50002689202B51A005034C0E07F203003193D
:1002E5007F30A20272067205500F120312C202C2BB
:1002F50006C205C2087F30800F300503E9C0E01251
:100305000061300503D0E0F9D0E0B51ACC3005170F
:100315007F30B9100C1200617F583004077F788058
:1003250003B908031200613002057F2D0200617FC9
:10033500202008F87F2B2006F322920280CF286E1A
:10034500756C6C2900D2011200263001F8C20178C3
:100355001A30D50108F60200CC2D50434958120039
:10036500262403B405004001E490035E9312005275
:0D037500743A120052D203751A040201B14D
:10075A00E4FFFE12049F600C0FEF70010E09E970AE
:05076A00F20A80EF22FD
:10049F00BB010689828A83E0225002E722BBFE025B
:0904AF00E32289828A83E493228E
:1004B800BB010689828A83F0225002F722BBFE0123
:0204C800F3221D
:1004CA00FAE6FB0808E6F925F0F618E6CA3AF62233
:1004DA00D083D082F8E4937012740193700DA3A3B1
:1004EA0093F8740193F5828883E4737402936860C5
:0604FA00EFA3A3A380DFC5
:00000001FF
